{
  "contractName": "Spacehorse",
  "abi": [
    {
      "inputs": [
        {
          "internalType": "address",
          "name": "initialOwner",
          "type": "address"
        }
      ],
      "stateMutability": "nonpayable",
      "type": "constructor"
    },
    {
      "inputs": [
        {
          "internalType": "address",
          "name": "sender",
          "type": "address"
        },
        {
          "internalType": "uint256",
          "name": "tokenId",
          "type": "uint256"
        },
        {
          "internalType": "address",
          "name": "owner",
          "type": "address"
        }
      ],
      "name": "ERC721IncorrectOwner",
      "type": "error"
    },
    {
      "inputs": [
        {
          "internalType": "address",
          "name": "operator",
          "type": "address"
        },
        {
          "internalType": "uint256",
          "name": "tokenId",
          "type": "uint256"
        }
      ],
      "name": "ERC721InsufficientApproval",
      "type": "error"
    },
    {
      "inputs": [
        {
          "internalType": "address",
          "name": "approver",
          "type": "address"
        }
      ],
      "name": "ERC721InvalidApprover",
      "type": "error"
    },
    {
      "inputs": [
        {
          "internalType": "address",
          "name": "operator",
          "type": "address"
        }
      ],
      "name": "ERC721InvalidOperator",
      "type": "error"
    },
    {
      "inputs": [
        {
          "internalType": "address",
          "name": "owner",
          "type": "address"
        }
      ],
      "name": "ERC721InvalidOwner",
      "type": "error"
    },
    {
      "inputs": [
        {
          "internalType": "address",
          "name": "receiver",
          "type": "address"
        }
      ],
      "name": "ERC721InvalidReceiver",
      "type": "error"
    },
    {
      "inputs": [
        {
          "internalType": "address",
          "name": "sender",
          "type": "address"
        }
      ],
      "name": "ERC721InvalidSender",
      "type": "error"
    },
    {
      "inputs": [
        {
          "internalType": "uint256",
          "name": "tokenId",
          "type": "uint256"
        }
      ],
      "name": "ERC721NonexistentToken",
      "type": "error"
    },
    {
      "inputs": [
        {
          "internalType": "address",
          "name": "owner",
          "type": "address"
        }
      ],
      "name": "OwnableInvalidOwner",
      "type": "error"
    },
    {
      "inputs": [
        {
          "internalType": "address",
          "name": "account",
          "type": "address"
        }
      ],
      "name": "OwnableUnauthorizedAccount",
      "type": "error"
    },
    {
      "anonymous": false,
      "inputs": [
        {
          "indexed": true,
          "internalType": "address",
          "name": "owner",
          "type": "address"
        },
        {
          "indexed": true,
          "internalType": "address",
          "name": "approved",
          "type": "address"
        },
        {
          "indexed": true,
          "internalType": "uint256",
          "name": "tokenId",
          "type": "uint256"
        }
      ],
      "name": "Approval",
      "type": "event"
    },
    {
      "anonymous": false,
      "inputs": [
        {
          "indexed": true,
          "internalType": "address",
          "name": "owner",
          "type": "address"
        },
        {
          "indexed": true,
          "internalType": "address",
          "name": "operator",
          "type": "address"
        },
        {
          "indexed": false,
          "internalType": "bool",
          "name": "approved",
          "type": "bool"
        }
      ],
      "name": "ApprovalForAll",
      "type": "event"
    },
    {
      "anonymous": false,
      "inputs": [
        {
          "indexed": true,
          "internalType": "address",
          "name": "previousOwner",
          "type": "address"
        },
        {
          "indexed": true,
          "internalType": "address",
          "name": "newOwner",
          "type": "address"
        }
      ],
      "name": "OwnershipTransferred",
      "type": "event"
    },
    {
      "anonymous": false,
      "inputs": [
        {
          "indexed": true,
          "internalType": "address",
          "name": "from",
          "type": "address"
        },
        {
          "indexed": true,
          "internalType": "address",
          "name": "to",
          "type": "address"
        },
        {
          "indexed": true,
          "internalType": "uint256",
          "name": "tokenId",
          "type": "uint256"
        }
      ],
      "name": "Transfer",
      "type": "event"
    },
    {
      "inputs": [
        {
          "internalType": "address",
          "name": "to",
          "type": "address"
        },
        {
          "internalType": "uint256",
          "name": "tokenId",
          "type": "uint256"
        }
      ],
      "name": "approve",
      "outputs": [],
      "stateMutability": "nonpayable",
      "type": "function"
    },
    {
      "inputs": [
        {
          "internalType": "address",
          "name": "owner",
          "type": "address"
        }
      ],
      "name": "balanceOf",
      "outputs": [
        {
          "internalType": "uint256",
          "name": "",
          "type": "uint256"
        }
      ],
      "stateMutability": "view",
      "type": "function",
      "constant": true
    },
    {
      "inputs": [
        {
          "internalType": "uint256",
          "name": "tokenId",
          "type": "uint256"
        }
      ],
      "name": "getApproved",
      "outputs": [
        {
          "internalType": "address",
          "name": "",
          "type": "address"
        }
      ],
      "stateMutability": "view",
      "type": "function",
      "constant": true
    },
    {
      "inputs": [
        {
          "internalType": "address",
          "name": "owner",
          "type": "address"
        },
        {
          "internalType": "address",
          "name": "operator",
          "type": "address"
        }
      ],
      "name": "isApprovedForAll",
      "outputs": [
        {
          "internalType": "bool",
          "name": "",
          "type": "bool"
        }
      ],
      "stateMutability": "view",
      "type": "function",
      "constant": true
    },
    {
      "inputs": [],
      "name": "name",
      "outputs": [
        {
          "internalType": "string",
          "name": "",
          "type": "string"
        }
      ],
      "stateMutability": "view",
      "type": "function",
      "constant": true
    },
    {
      "inputs": [],
      "name": "owner",
      "outputs": [
        {
          "internalType": "address",
          "name": "",
          "type": "address"
        }
      ],
      "stateMutability": "view",
      "type": "function",
      "constant": true
    },
    {
      "inputs": [
        {
          "internalType": "uint256",
          "name": "tokenId",
          "type": "uint256"
        }
      ],
      "name": "ownerOf",
      "outputs": [
        {
          "internalType": "address",
          "name": "",
          "type": "address"
        }
      ],
      "stateMutability": "view",
      "type": "function",
      "constant": true
    },
    {
      "inputs": [],
      "name": "renounceOwnership",
      "outputs": [],
      "stateMutability": "nonpayable",
      "type": "function"
    },
    {
      "inputs": [
        {
          "internalType": "address",
          "name": "from",
          "type": "address"
        },
        {
          "internalType": "address",
          "name": "to",
          "type": "address"
        },
        {
          "internalType": "uint256",
          "name": "tokenId",
          "type": "uint256"
        }
      ],
      "name": "safeTransferFrom",
      "outputs": [],
      "stateMutability": "nonpayable",
      "type": "function"
    },
    {
      "inputs": [
        {
          "internalType": "address",
          "name": "from",
          "type": "address"
        },
        {
          "internalType": "address",
          "name": "to",
          "type": "address"
        },
        {
          "internalType": "uint256",
          "name": "tokenId",
          "type": "uint256"
        },
        {
          "internalType": "bytes",
          "name": "data",
          "type": "bytes"
        }
      ],
      "name": "safeTransferFrom",
      "outputs": [],
      "stateMutability": "nonpayable",
      "type": "function"
    },
    {
      "inputs": [
        {
          "internalType": "address",
          "name": "operator",
          "type": "address"
        },
        {
          "internalType": "bool",
          "name": "approved",
          "type": "bool"
        }
      ],
      "name": "setApprovalForAll",
      "outputs": [],
      "stateMutability": "nonpayable",
      "type": "function"
    },
    {
      "inputs": [],
      "name": "symbol",
      "outputs": [
        {
          "internalType": "string",
          "name": "",
          "type": "string"
        }
      ],
      "stateMutability": "view",
      "type": "function",
      "constant": true
    },
    {
      "inputs": [
        {
          "internalType": "address",
          "name": "from",
          "type": "address"
        },
        {
          "internalType": "address",
          "name": "to",
          "type": "address"
        },
        {
          "internalType": "uint256",
          "name": "tokenId",
          "type": "uint256"
        }
      ],
      "name": "transferFrom",
      "outputs": [],
      "stateMutability": "nonpayable",
      "type": "function"
    },
    {
      "inputs": [
        {
          "internalType": "address",
          "name": "newOwner",
          "type": "address"
        }
      ],
      "name": "transferOwnership",
      "outputs": [],
      "stateMutability": "nonpayable",
      "type": "function"
    },
    {
      "inputs": [],
      "name": "buyToken",
      "outputs": [],
      "stateMutability": "payable",
      "type": "function",
      "payable": true
    },
    {
      "inputs": [
        {
          "internalType": "address",
          "name": "to",
          "type": "address"
        }
      ],
      "name": "safeMint",
      "outputs": [],
      "stateMutability": "nonpayable",
      "type": "function"
    },
    {
      "inputs": [
        {
          "internalType": "uint256",
          "name": "tokenId",
          "type": "uint256"
        }
      ],
      "name": "tokenURI",
      "outputs": [
        {
          "internalType": "string",
          "name": "",
          "type": "string"
        }
      ],
      "stateMutability": "pure",
      "type": "function",
      "constant": true
    },
    {
      "inputs": [
        {
          "internalType": "bytes4",
          "name": "interfaceId",
          "type": "bytes4"
        }
      ],
      "name": "supportsInterface",
      "outputs": [
        {
          "internalType": "bool",
          "name": "",
          "type": "bool"
        }
      ],
      "stateMutability": "view",
      "type": "function",
      "constant": true
    }
  ],
  "bytecode": "0x608060405234801562000010575f80fd5b50604051620028de380380620028de83398181016040528101906200003691906200027c565b806040518060400160405280600a81526020017f5370616365686f727365000000000000000000000000000000000000000000008152506040518060400160405280600381526020017f5348520000000000000000000000000000000000000000000000000000000000815250815f9081620000b3919062000510565b508060019081620000c5919062000510565b5050505f73ffffffffffffffffffffffffffffffffffffffff168173ffffffffffffffffffffffffffffffffffffffff16036200013b575f6040517f1e4fbdf700000000000000000000000000000000000000000000000000000000815260040162000132919062000605565b60405180910390fd5b6200014c816200015460201b60201c565b505062000620565b5f60065f9054906101000a900473ffffffffffffffffffffffffffffffffffffffff1690508160065f6101000a81548173ffffffffffffffffffffffffffffffffffffffff021916908373ffffffffffffffffffffffffffffffffffffffff1602179055508173ffffffffffffffffffffffffffffffffffffffff168173ffffffffffffffffffffffffffffffffffffffff167f8be0079c531659141344cd1fd0a4f28419497f9722a3daafe3b4186f6b6457e060405160405180910390a35050565b5f80fd5b5f73ffffffffffffffffffffffffffffffffffffffff82169050919050565b5f62000246826200021b565b9050919050565b62000258816200023a565b811462000263575f80fd5b50565b5f8151905062000276816200024d565b92915050565b5f6020828403121562000294576200029362000217565b5b5f620002a38482850162000266565b91505092915050565b5f81519050919050565b7f4e487b71000000000000000000000000000000000000000000000000000000005f52604160045260245ffd5b7f4e487b71000000000000000000000000000000000000000000000000000000005f52602260045260245ffd5b5f60028204905060018216806200032857607f821691505b6020821081036200033e576200033d620002e3565b5b50919050565b5f819050815f5260205f209050919050565b5f6020601f8301049050919050565b5f82821b905092915050565b5f60088302620003a27fffffffffffffffffffffffffffffffffffffffffffffffffffffffffffffffff8262000365565b620003ae868362000365565b95508019841693508086168417925050509392505050565b5f819050919050565b5f819050919050565b5f620003f8620003f2620003ec84620003c6565b620003cf565b620003c6565b9050919050565b5f819050919050565b6200041383620003d8565b6200042b6200042282620003ff565b84845462000371565b825550505050565b5f90565b6200044162000433565b6200044e81848462000408565b505050565b5b818110156200047557620004695f8262000437565b60018101905062000454565b5050565b601f821115620004c4576200048e8162000344565b620004998462000356565b81016020851015620004a9578190505b620004c1620004b88562000356565b83018262000453565b50505b505050565b5f82821c905092915050565b5f620004e65f1984600802620004c9565b1980831691505092915050565b5f620005008383620004d5565b9150826002028217905092915050565b6200051b82620002ac565b67ffffffffffffffff811115620005375762000536620002b6565b5b62000543825462000310565b6200055082828562000479565b5f60209050601f83116001811462000586575f841562000571578287015190505b6200057d8582620004f3565b865550620005ec565b601f198416620005968662000344565b5f5b82811015620005bf5784890151825560018201915060208501945060208101905062000598565b86831015620005df5784890151620005db601f891682620004d5565b8355505b6001600288020188555050505b505050505050565b620005ff816200023a565b82525050565b5f6020820190506200061a5f830184620005f4565b92915050565b6122b0806200062e5f395ff3fe608060405260043610610108575f3560e01c8063715018a611610094578063a482171911610063578063a482171914610358578063b88d4fde14610362578063c87b56dd1461038a578063e985e9c5146103c6578063f2fde38b1461040257610108565b8063715018a6146102c65780638da5cb5b146102dc57806395d89b4114610306578063a22cb4651461033057610108565b806323b872dd116100db57806323b872dd146101d657806340d097c3146101fe57806342842e0e146102265780636352211e1461024e57806370a082311461028a57610108565b806301ffc9a71461010c57806306fdde0314610148578063081812fc14610172578063095ea7b3146101ae575b5f80fd5b348015610117575f80fd5b50610132600480360381019061012d91906118a6565b61042a565b60405161013f91906118eb565b60405180910390f35b348015610153575f80fd5b5061015c61043b565b604051610169919061198e565b60405180910390f35b34801561017d575f80fd5b50610198600480360381019061019391906119e1565b6104ca565b6040516101a59190611a4b565b60405180910390f35b3480156101b9575f80fd5b506101d460048036038101906101cf9190611a8e565b6104e5565b005b3480156101e1575f80fd5b506101fc60048036038101906101f79190611acc565b6104fb565b005b348015610209575f80fd5b50610224600480360381019061021f9190611b1c565b6105fa565b005b348015610231575f80fd5b5061024c60048036038101906102479190611acc565b610629565b005b348015610259575f80fd5b50610274600480360381019061026f91906119e1565b610648565b6040516102819190611a4b565b60405180910390f35b348015610295575f80fd5b506102b060048036038101906102ab9190611b1c565b610659565b6040516102bd9190611b56565b60405180910390f35b3480156102d1575f80fd5b506102da61070f565b005b3480156102e7575f80fd5b506102f0610722565b6040516102fd9190611a4b565b60405180910390f35b348015610311575f80fd5b5061031a61074a565b604051610327919061198e565b60405180910390f35b34801561033b575f80fd5b5061035660048036038101906103519190611b99565b6107da565b005b6103606107f0565b005b34801561036d575f80fd5b5061038860048036038101906103839190611d03565b6108af565b005b348015610395575f80fd5b506103b060048036038101906103ab91906119e1565b6108d4565b6040516103bd919061198e565b60405180910390f35b3480156103d1575f80fd5b506103ec60048036038101906103e79190611d83565b610912565b6040516103f991906118eb565b60405180910390f35b34801561040d575f80fd5b5061042860048036038101906104239190611b1c565b6109a0565b005b5f61043482610a24565b9050919050565b60605f805461044990611dee565b80601f016020809104026020016040519081016040528092919081815260200182805461047590611dee565b80156104c05780601f10610497576101008083540402835291602001916104c0565b820191905f5260205f20905b8154815290600101906020018083116104a357829003601f168201915b5050505050905090565b5f6104d482610b05565b506104de82610b8b565b9050919050565b6104f782826104f2610bc4565b610bcb565b5050565b5f73ffffffffffffffffffffffffffffffffffffffff168273ffffffffffffffffffffffffffffffffffffffff160361056b575f6040517f64a0ae920000000000000000000000000000000000000000000000000000000081526004016105629190611a4b565b60405180910390fd5b5f61057e8383610579610bc4565b610bdd565b90508373ffffffffffffffffffffffffffffffffffffffff168173ffffffffffffffffffffffffffffffffffffffff16146105f4578382826040517f64283d7b0000000000000000000000000000000000000000000000000000000081526004016105eb93929190611e1e565b60405180910390fd5b50505050565b610602610de8565b5f60075f81548092919061061590611e80565b9190505590506106258282610e6f565b5050565b61064383838360405180602001604052805f8152506108af565b505050565b5f61065282610b05565b9050919050565b5f8073ffffffffffffffffffffffffffffffffffffffff168273ffffffffffffffffffffffffffffffffffffffff16036106ca575f6040517f89c62b640000000000000000000000000000000000000000000000000000000081526004016106c19190611a4b565b60405180910390fd5b60035f8373ffffffffffffffffffffffffffffffffffffffff1673ffffffffffffffffffffffffffffffffffffffff1681526020019081526020015f20549050919050565b610717610de8565b6107205f610e8c565b565b5f60065f9054906101000a900473ffffffffffffffffffffffffffffffffffffffff16905090565b60606001805461075990611dee565b80601f016020809104026020016040519081016040528092919081815260200182805461078590611dee565b80156107d05780601f106107a7576101008083540402835291602001916107d0565b820191905f5260205f20905b8154815290600101906020018083116107b357829003601f168201915b5050505050905090565b6107ec6107e5610bc4565b8383610f4f565b5050565b5f60075490506108366040518060400160405280600881526020017f676f74206865726500000000000000000000000000000000000000000000000081525082346110b8565b67016345785d8a00008161084a9190611ec7565b341461088b576040517f08c379a000000000000000000000000000000000000000000000000000000000815260040161088290611f52565b60405180910390fd5b60075f81548092919061089d90611e80565b91905055506108ac3382610e6f565b50565b6108ba8484846104fb565b6108ce6108c5610bc4565b85858585611157565b50505050565b60606108de611303565b6001836108eb9190611f70565b6040516020016108fc929190612091565b6040516020818303038152906040529050919050565b5f60055f8473ffffffffffffffffffffffffffffffffffffffff1673ffffffffffffffffffffffffffffffffffffffff1681526020019081526020015f205f8373ffffffffffffffffffffffffffffffffffffffff1673ffffffffffffffffffffffffffffffffffffffff1681526020019081526020015f205f9054906101000a900460ff16905092915050565b6109a8610de8565b5f73ffffffffffffffffffffffffffffffffffffffff168173ffffffffffffffffffffffffffffffffffffffff1603610a18575f6040517f1e4fbdf7000000000000000000000000000000000000000000000000000000008152600401610a0f9190611a4b565b60405180910390fd5b610a2181610e8c565b50565b5f7f80ac58cd000000000000000000000000000000000000000000000000000000007bffffffffffffffffffffffffffffffffffffffffffffffffffffffff1916827bffffffffffffffffffffffffffffffffffffffffffffffffffffffff19161480610aee57507f5b5e139f000000000000000000000000000000000000000000000000000000007bffffffffffffffffffffffffffffffffffffffffffffffffffffffff1916827bffffffffffffffffffffffffffffffffffffffffffffffffffffffff1916145b80610afe5750610afd82611323565b5b9050919050565b5f80610b108361138c565b90505f73ffffffffffffffffffffffffffffffffffffffff168173ffffffffffffffffffffffffffffffffffffffff1603610b8257826040517f7e273289000000000000000000000000000000000000000000000000000000008152600401610b799190611b56565b60405180910390fd5b80915050919050565b5f60045f8381526020019081526020015f205f9054906101000a900473ffffffffffffffffffffffffffffffffffffffff169050919050565b5f33905090565b610bd883838360016113c5565b505050565b5f80610be88461138c565b90505f73ffffffffffffffffffffffffffffffffffffffff168373ffffffffffffffffffffffffffffffffffffffff1614610c2957610c28818486611584565b5b5f73ffffffffffffffffffffffffffffffffffffffff168173ffffffffffffffffffffffffffffffffffffffff1614610cb457610c685f855f806113c5565b600160035f8373ffffffffffffffffffffffffffffffffffffffff1673ffffffffffffffffffffffffffffffffffffffff1681526020019081526020015f205f82825403925050819055505b5f73ffffffffffffffffffffffffffffffffffffffff168573ffffffffffffffffffffffffffffffffffffffff1614610d3357600160035f8773ffffffffffffffffffffffffffffffffffffffff1673ffffffffffffffffffffffffffffffffffffffff1681526020019081526020015f205f82825401925050819055505b8460025f8681526020019081526020015f205f6101000a81548173ffffffffffffffffffffffffffffffffffffffff021916908373ffffffffffffffffffffffffffffffffffffffff160217905550838573ffffffffffffffffffffffffffffffffffffffff168273ffffffffffffffffffffffffffffffffffffffff167fddf252ad1be2c89b69c2b068fc378daa952ba7f163c4a11628f55a4df523b3ef60405160405180910390a4809150509392505050565b610df0610bc4565b73ffffffffffffffffffffffffffffffffffffffff16610e0e610722565b73ffffffffffffffffffffffffffffffffffffffff1614610e6d57610e31610bc4565b6040517f118cdaa7000000000000000000000000000000000000000000000000000000008152600401610e649190611a4b565b60405180910390fd5b565b610e88828260405180602001604052805f815250611647565b5050565b5f60065f9054906101000a900473ffffffffffffffffffffffffffffffffffffffff1690508160065f6101000a81548173ffffffffffffffffffffffffffffffffffffffff021916908373ffffffffffffffffffffffffffffffffffffffff1602179055508173ffffffffffffffffffffffffffffffffffffffff168173ffffffffffffffffffffffffffffffffffffffff167f8be0079c531659141344cd1fd0a4f28419497f9722a3daafe3b4186f6b6457e060405160405180910390a35050565b5f73ffffffffffffffffffffffffffffffffffffffff168273ffffffffffffffffffffffffffffffffffffffff1603610fbf57816040517f5b08ba18000000000000000000000000000000000000000000000000000000008152600401610fb69190611a4b565b60405180910390fd5b8060055f8573ffffffffffffffffffffffffffffffffffffffff1673ffffffffffffffffffffffffffffffffffffffff1681526020019081526020015f205f8473ffffffffffffffffffffffffffffffffffffffff1673ffffffffffffffffffffffffffffffffffffffff1681526020019081526020015f205f6101000a81548160ff0219169083151502179055508173ffffffffffffffffffffffffffffffffffffffff168373ffffffffffffffffffffffffffffffffffffffff167f17307eab39ab6107e8899845ad3d59bd9653f200f220920489ca2b5937696c31836040516110ab91906118eb565b60405180910390a3505050565b6111528383836040516024016110d0939291906120ce565b6040516020818303038152906040527fca47c4eb000000000000000000000000000000000000000000000000000000007bffffffffffffffffffffffffffffffffffffffffffffffffffffffff19166020820180517bffffffffffffffffffffffffffffffffffffffffffffffffffffffff838183161783525050505061166a565b505050565b5f8373ffffffffffffffffffffffffffffffffffffffff163b11156112fc578273ffffffffffffffffffffffffffffffffffffffff1663150b7a02868685856040518563ffffffff1660e01b81526004016111b5949392919061215c565b6020604051808303815f875af19250505080156111f057506040513d601f19601f820116820180604052508101906111ed91906121ba565b60015b611271573d805f811461121e576040519150601f19603f3d011682016040523d82523d5f602084013e611223565b606091505b505f81510361126957836040517f64a0ae920000000000000000000000000000000000000000000000000000000081526004016112609190611a4b565b60405180910390fd5b805181602001fd5b63150b7a0260e01b7bffffffffffffffffffffffffffffffffffffffffffffffffffffffff1916817bffffffffffffffffffffffffffffffffffffffffffffffffffffffff1916146112fa57836040517f64a0ae920000000000000000000000000000000000000000000000000000000081526004016112f19190611a4b565b60405180910390fd5b505b5050505050565b60606040518060a00160405280606e815260200161220d606e9139905090565b5f7f01ffc9a7000000000000000000000000000000000000000000000000000000007bffffffffffffffffffffffffffffffffffffffffffffffffffffffff1916827bffffffffffffffffffffffffffffffffffffffffffffffffffffffff1916149050919050565b5f60025f8381526020019081526020015f205f9054906101000a900473ffffffffffffffffffffffffffffffffffffffff169050919050565b80806113fd57505f73ffffffffffffffffffffffffffffffffffffffff168273ffffffffffffffffffffffffffffffffffffffff1614155b1561152f575f61140c84610b05565b90505f73ffffffffffffffffffffffffffffffffffffffff168373ffffffffffffffffffffffffffffffffffffffff161415801561147657508273ffffffffffffffffffffffffffffffffffffffff168173ffffffffffffffffffffffffffffffffffffffff1614155b801561148957506114878184610912565b155b156114cb57826040517fa9fbf51f0000000000000000000000000000000000000000000000000000000081526004016114c29190611a4b565b60405180910390fd5b811561152d57838573ffffffffffffffffffffffffffffffffffffffff168273ffffffffffffffffffffffffffffffffffffffff167f8c5be1e5ebec7d5bd14f71427d1e84f3dd0314c0f7b2291e5b200ac8c7c3b92560405160405180910390a45b505b8360045f8581526020019081526020015f205f6101000a81548173ffffffffffffffffffffffffffffffffffffffff021916908373ffffffffffffffffffffffffffffffffffffffff16021790555050505050565b61158f83838361168d565b611642575f73ffffffffffffffffffffffffffffffffffffffff168373ffffffffffffffffffffffffffffffffffffffff160361160357806040517f7e2732890000000000000000000000000000000000000000000000000000000081526004016115fa9190611b56565b60405180910390fd5b81816040517f177e802f0000000000000000000000000000000000000000000000000000000081526004016116399291906121e5565b60405180910390fd5b505050565b611651838361174d565b61166561165c610bc4565b5f858585611157565b505050565b5f6a636f6e736f6c652e6c6f6790508151602083015f808383865afa5050505050565b5f8073ffffffffffffffffffffffffffffffffffffffff168373ffffffffffffffffffffffffffffffffffffffff161415801561174457508273ffffffffffffffffffffffffffffffffffffffff168473ffffffffffffffffffffffffffffffffffffffff16148061170557506117048484610912565b5b8061174357508273ffffffffffffffffffffffffffffffffffffffff1661172b83610b8b565b73ffffffffffffffffffffffffffffffffffffffff16145b5b90509392505050565b5f73ffffffffffffffffffffffffffffffffffffffff168273ffffffffffffffffffffffffffffffffffffffff16036117bd575f6040517f64a0ae920000000000000000000000000000000000000000000000000000000081526004016117b49190611a4b565b60405180910390fd5b5f6117c983835f610bdd565b90505f73ffffffffffffffffffffffffffffffffffffffff168173ffffffffffffffffffffffffffffffffffffffff161461183b575f6040517f73c6ac6e0000000000000000000000000000000000000000000000000000000081526004016118329190611a4b565b60405180910390fd5b505050565b5f604051905090565b5f80fd5b5f80fd5b5f7fffffffff0000000000000000000000000000000000000000000000000000000082169050919050565b61188581611851565b811461188f575f80fd5b50565b5f813590506118a08161187c565b92915050565b5f602082840312156118bb576118ba611849565b5b5f6118c884828501611892565b91505092915050565b5f8115159050919050565b6118e5816118d1565b82525050565b5f6020820190506118fe5f8301846118dc565b92915050565b5f81519050919050565b5f82825260208201905092915050565b5f5b8381101561193b578082015181840152602081019050611920565b5f8484015250505050565b5f601f19601f8301169050919050565b5f61196082611904565b61196a818561190e565b935061197a81856020860161191e565b61198381611946565b840191505092915050565b5f6020820190508181035f8301526119a68184611956565b905092915050565b5f819050919050565b6119c0816119ae565b81146119ca575f80fd5b50565b5f813590506119db816119b7565b92915050565b5f602082840312156119f6576119f5611849565b5b5f611a03848285016119cd565b91505092915050565b5f73ffffffffffffffffffffffffffffffffffffffff82169050919050565b5f611a3582611a0c565b9050919050565b611a4581611a2b565b82525050565b5f602082019050611a5e5f830184611a3c565b92915050565b611a6d81611a2b565b8114611a77575f80fd5b50565b5f81359050611a8881611a64565b92915050565b5f8060408385031215611aa457611aa3611849565b5b5f611ab185828601611a7a565b9250506020611ac2858286016119cd565b9150509250929050565b5f805f60608486031215611ae357611ae2611849565b5b5f611af086828701611a7a565b9350506020611b0186828701611a7a565b9250506040611b12868287016119cd565b9150509250925092565b5f60208284031215611b3157611b30611849565b5b5f611b3e84828501611a7a565b91505092915050565b611b50816119ae565b82525050565b5f602082019050611b695f830184611b47565b92915050565b611b78816118d1565b8114611b82575f80fd5b50565b5f81359050611b9381611b6f565b92915050565b5f8060408385031215611baf57611bae611849565b5b5f611bbc85828601611a7a565b9250506020611bcd85828601611b85565b9150509250929050565b5f80fd5b5f80fd5b7f4e487b71000000000000000000000000000000000000000000000000000000005f52604160045260245ffd5b611c1582611946565b810181811067ffffffffffffffff82111715611c3457611c33611bdf565b5b80604052505050565b5f611c46611840565b9050611c528282611c0c565b919050565b5f67ffffffffffffffff821115611c7157611c70611bdf565b5b611c7a82611946565b9050602081019050919050565b828183375f83830152505050565b5f611ca7611ca284611c57565b611c3d565b905082815260208101848484011115611cc357611cc2611bdb565b5b611cce848285611c87565b509392505050565b5f82601f830112611cea57611ce9611bd7565b5b8135611cfa848260208601611c95565b91505092915050565b5f805f8060808587031215611d1b57611d1a611849565b5b5f611d2887828801611a7a565b9450506020611d3987828801611a7a565b9350506040611d4a878288016119cd565b925050606085013567ffffffffffffffff811115611d6b57611d6a61184d565b5b611d7787828801611cd6565b91505092959194509250565b5f8060408385031215611d9957611d98611849565b5b5f611da685828601611a7a565b9250506020611db785828601611a7a565b9150509250929050565b7f4e487b71000000000000000000000000000000000000000000000000000000005f52602260045260245ffd5b5f6002820490506001821680611e0557607f821691505b602082108103611e1857611e17611dc1565b5b50919050565b5f606082019050611e315f830186611a3c565b611e3e6020830185611b47565b611e4b6040830184611a3c565b949350505050565b7f4e487b71000000000000000000000000000000000000000000000000000000005f52601160045260245ffd5b5f611e8a826119ae565b91507fffffffffffffffffffffffffffffffffffffffffffffffffffffffffffffffff8203611ebc57611ebb611e53565b5b600182019050919050565b5f611ed1826119ae565b9150611edc836119ae565b9250828202611eea816119ae565b91508282048414831517611f0157611f00611e53565b5b5092915050565b7f57726f6e6720616d6f756e74206f662066756e64732073656e742021000000005f82015250565b5f611f3c601c8361190e565b9150611f4782611f08565b602082019050919050565b5f6020820190508181035f830152611f6981611f30565b9050919050565b5f611f7a826119ae565b9150611f85836119ae565b9250828201905080821115611f9d57611f9c611e53565b5b92915050565b5f81905092915050565b5f611fb782611904565b611fc18185611fa3565b9350611fd181856020860161191e565b80840191505092915050565b7f7370616365686f727365000000000000000000000000000000000000000000005f82015250565b5f612011600a83611fa3565b915061201c82611fdd565b600a82019050919050565b5f819050919050565b61204161203c826119ae565b612027565b82525050565b7f2e6a736f6e0000000000000000000000000000000000000000000000000000005f82015250565b5f61207b600583611fa3565b915061208682612047565b600582019050919050565b5f61209c8285611fad565b91506120a782612005565b91506120b38284612030565b6020820191506120c28261206f565b91508190509392505050565b5f6060820190508181035f8301526120e68186611956565b90506120f56020830185611b47565b6121026040830184611b47565b949350505050565b5f81519050919050565b5f82825260208201905092915050565b5f61212e8261210a565b6121388185612114565b935061214881856020860161191e565b61215181611946565b840191505092915050565b5f60808201905061216f5f830187611a3c565b61217c6020830186611a3c565b6121896040830185611b47565b818103606083015261219b8184612124565b905095945050505050565b5f815190506121b48161187c565b92915050565b5f602082840312156121cf576121ce611849565b5b5f6121dc848285016121a6565b91505092915050565b5f6040820190506121f85f830185611a3c565b6122056020830184611b47565b939250505056fe68747470733a2f2f7261772e67697468756275736572636f6e74656e742e636f6d2f616c6164696e7377732f657468657265756d2d626c6f636b636861696e2d6c6162732f726566732f68656164732f6d61696e2f352d4e6f6e2d46756e6769626c652d746f6b656e2d4e46542fa2646970667358221220bb8d8b7d919784b47f97526f4ca26a69ba89ad11232a33824168cb4707aaf41964736f6c63430008150033",
  "immutableReferences": {},
  "source": "// SPDX-License-Identifier: MIT\n// Compatible with OpenZeppelin Contracts ^5.0.0\npragma solidity 0.8.21;\n\nimport \"@openzeppelin/contracts/token/ERC721/ERC721.sol\";\nimport \"@openzeppelin/contracts/access/Ownable.sol\";\n\nimport \"@ganache/console.log/console.sol\";\n\ncontract Spacehorse is ERC721, Ownable {\n    uint256 private _nextTokenId;\n\n    constructor(address initialOwner)\n        ERC721(\"Spacehorse\", \"SHR\")\n        Ownable(initialOwner)\n    {}\n\n    function _baseURI() internal pure override returns (string memory) {\n        return \"https://raw.githubusercontent.com/aladinsws/ethereum-blockchain-labs/refs/heads/main/5-Non-Fungible-token-NFT/\";\n    }\n\n    function buyToken() public payable {\n        uint256 tokenId = _nextTokenId;\n        console.log(\"got here\", tokenId, msg.value);\n        require(msg.value== tokenId * 0.1 ether , \"Wrong amount of funds sent !\");\n\n        _nextTokenId++;\n        _safeMint(msg.sender, tokenId);\n    }\n\n    function safeMint(address to) public onlyOwner {\n        uint256 tokenId = _nextTokenId++;\n        _safeMint(to, tokenId);\n    }\n\n    // The following functions are overrides required by Solidity.\n\n    function tokenURI(uint256 tokenId)\n        public\n        pure\n        override(ERC721)\n        returns (string memory)\n    {\n        return string(abi.encodePacked(_baseURI(),\"spacehorse\",(tokenId+1),\".json\"));\n    }\n\n    function supportsInterface(bytes4 interfaceId)\n        public\n        view\n        override(ERC721)\n        returns (bool)\n    {\n        return super.supportsInterface(interfaceId);\n    }\n}",
  "sourcePath": "/Users/alatsuki/Documents/projects/blockchain/solidity/ethereum-blockchain-labs/5-Non-Fungible-token-NFT/truffel-project/contracts/Spacehorse.sol",
  "compiler": {
    "name": "solc",
    "version": "0.8.21+commit.d9974bed.Emscripten.clang"
  },
  "schemaVersion": "3.4.16",
  "updatedAt": "2024-10-23T09:11:16.345Z",
  "networkType": "ethereum",
  "devdoc": {
    "errors": {
      "ERC721IncorrectOwner(address,uint256,address)": [
        {
          "details": "Indicates an error related to the ownership over a particular token. Used in transfers.",
          "params": {
            "owner": "Address of the current owner of a token.",
            "sender": "Address whose tokens are being transferred.",
            "tokenId": "Identifier number of a token."
          }
        }
      ],
      "ERC721InsufficientApproval(address,uint256)": [
        {
          "details": "Indicates a failure with the `operator`s approval. Used in transfers.",
          "params": {
            "operator": "Address that may be allowed to operate on tokens without being their owner.",
            "tokenId": "Identifier number of a token."
          }
        }
      ],
      "ERC721InvalidApprover(address)": [
        {
          "details": "Indicates a failure with the `approver` of a token to be approved. Used in approvals.",
          "params": {
            "approver": "Address initiating an approval operation."
          }
        }
      ],
      "ERC721InvalidOperator(address)": [
        {
          "details": "Indicates a failure with the `operator` to be approved. Used in approvals.",
          "params": {
            "operator": "Address that may be allowed to operate on tokens without being their owner."
          }
        }
      ],
      "ERC721InvalidOwner(address)": [
        {
          "details": "Indicates that an address can't be an owner. For example, `address(0)` is a forbidden owner in ERC-20. Used in balance queries.",
          "params": {
            "owner": "Address of the current owner of a token."
          }
        }
      ],
      "ERC721InvalidReceiver(address)": [
        {
          "details": "Indicates a failure with the token `receiver`. Used in transfers.",
          "params": {
            "receiver": "Address to which tokens are being transferred."
          }
        }
      ],
      "ERC721InvalidSender(address)": [
        {
          "details": "Indicates a failure with the token `sender`. Used in transfers.",
          "params": {
            "sender": "Address whose tokens are being transferred."
          }
        }
      ],
      "ERC721NonexistentToken(uint256)": [
        {
          "details": "Indicates a `tokenId` whose `owner` is the zero address.",
          "params": {
            "tokenId": "Identifier number of a token."
          }
        }
      ],
      "OwnableInvalidOwner(address)": [
        {
          "details": "The owner is not a valid owner account. (eg. `address(0)`)"
        }
      ],
      "OwnableUnauthorizedAccount(address)": [
        {
          "details": "The caller account is not authorized to perform an operation."
        }
      ]
    },
    "events": {
      "Approval(address,address,uint256)": {
        "details": "Emitted when `owner` enables `approved` to manage the `tokenId` token."
      },
      "ApprovalForAll(address,address,bool)": {
        "details": "Emitted when `owner` enables or disables (`approved`) `operator` to manage all of its assets."
      },
      "Transfer(address,address,uint256)": {
        "details": "Emitted when `tokenId` token is transferred from `from` to `to`."
      }
    },
    "kind": "dev",
    "methods": {
      "approve(address,uint256)": {
        "details": "See {IERC721-approve}."
      },
      "balanceOf(address)": {
        "details": "See {IERC721-balanceOf}."
      },
      "getApproved(uint256)": {
        "details": "See {IERC721-getApproved}."
      },
      "isApprovedForAll(address,address)": {
        "details": "See {IERC721-isApprovedForAll}."
      },
      "name()": {
        "details": "See {IERC721Metadata-name}."
      },
      "owner()": {
        "details": "Returns the address of the current owner."
      },
      "ownerOf(uint256)": {
        "details": "See {IERC721-ownerOf}."
      },
      "renounceOwnership()": {
        "details": "Leaves the contract without owner. It will not be possible to call `onlyOwner` functions. Can only be called by the current owner. NOTE: Renouncing ownership will leave the contract without an owner, thereby disabling any functionality that is only available to the owner."
      },
      "safeTransferFrom(address,address,uint256)": {
        "details": "See {IERC721-safeTransferFrom}."
      },
      "safeTransferFrom(address,address,uint256,bytes)": {
        "details": "See {IERC721-safeTransferFrom}."
      },
      "setApprovalForAll(address,bool)": {
        "details": "See {IERC721-setApprovalForAll}."
      },
      "supportsInterface(bytes4)": {
        "details": "See {IERC165-supportsInterface}."
      },
      "symbol()": {
        "details": "See {IERC721Metadata-symbol}."
      },
      "tokenURI(uint256)": {
        "details": "See {IERC721Metadata-tokenURI}."
      },
      "transferFrom(address,address,uint256)": {
        "details": "See {IERC721-transferFrom}."
      },
      "transferOwnership(address)": {
        "details": "Transfers ownership of the contract to a new account (`newOwner`). Can only be called by the current owner."
      }
    },
    "version": 1
  },
  "userdoc": {
    "kind": "user",
    "methods": {},
    "version": 1
  }
}